:100000000C9496170C94C7170C94C7170C94C71729
:100010000C94C7170C94C7170C94C7170C94C717E8
:100020000C94C7170C94D4D40C94D4D40C94D4D47A
:100030000C94C7170C94C7170C94C7170C94C717C8
:100040000C94C7170C9463940C94C7170C94C7179F
:100050000C94C7170C94C7170C94A7B20C9430AE2D
:100060000C94C7170C9436400C942C400C94C71772
:100070000C94C7170C94C7170C94C7170C94C71788
:100080000C94C03A0C94C7170C94C7170C94C7175C
:100090000C94C7170C94C7170C94C7170C94C71768
:1000A0000C94C7170C94C7170C94923A0C94C7176A
:1000B0000C94C7170C94C7170C94C7170C94643A88
:1000C0000C94C7170C94C7170C94C7170C94C71738
:1000D0000C94C7170C94C7170C94C7170C94C71728
:1000E0000C94C717755F7C5F2F60346086618B61ED
:1000F0009B615A7D607D6B7D767D817D8C7D977D5A
:10010000A27DD67DD67DD67DD67DAD7DF57D017E69
:10011000127E237E347E457E567E677E9E7E9E7E48
:100120009E7E9E7E757EBD7EC97EDA7EEB7EFC7EE7
:100130000D7F1E7F2F7F667F667F667F667F3D7F98
:10014000857F8E7F9D7FA87FB37FBE7FC97FD37F52
:100150000180018001800180DB7F2F80EE8035806F
:100160003F804980538069807680EE808380EE8076
:100170009180EE809980A380EE80EE80B780EE8043
:10018000C180CB80D580E4800D81FC8116812381E4
:1001900030813D8156816681FC817681FC81878139
:1001A000FC819281A281FC81FC81B981FC81C681A4
:1001B000D381E081F2811B820A83248231823E82D4
:1001C0004B82648274820A8384820A8395820A83C2
:1001D000A082B0820A830A83C7820A83D482E18222
:1001E000EE8200832983DB832F8337833F8347831A
:1001F0005D836883DB837383DB837F83DB83878318
:100200009483DB83DB83AB83DB83B583BD83C583CF
:10021000D4834DC853C858C866C86CC871C877C85D
:100220007CC898C898C883C898C888C88EC893C81E
:10023000B8C8BEC8C3C8D1C8D7C8DCC8E2C8E7C8F8
:1002400003C903C9EEC803C9F3C8F9C8FEC823C966
:1002500029C92EC93CC942C947C94DC952C96EC92D
:100260006EC959C96EC95EC964C969C98DC993C9C6
:1002700098C9A6C9ACC9B1C9B7C9BCC9D8C9D8C978
:10028000C3C9D8C9C8C9CEC9D3C99ED3A1D390D335
:1002900094D39AD3D8D3A5D3A9D3AFD3B3D3B7D359
:1002A000BDD3C1D3C5D3D8D3CBD3CFD3D3D338D6F3
:1002B0003DD642D64CD656D6CFD660D668D670D666
:1002C0007AD684D68ED69DD6A7D6CFD6B1D6BBD673
:1002D000C5D6084AD73B3BCE016E84BCBFFDC12FBB
:1002E0003D6C74319ABD56833DDA3D00C77F11BE27
:1002F000D9E4BB4C3E916BAAAABE000000803F052A
:10030000A84CCDB2D44EB93836A9020C50B991865A
:1003100088083CA6AAAA2ABE000000803F076342C4
:1003200036B79BD8A71A39685618AEBAAB558C1D8C
:100330003CB7CC5763BD6DEDFD753EF6177231BF0E
:10034000000000803F08000000BE922449123EAB2E
:10035000AAAA2ABECDCCCC4C3E00000080BEABAADF
:10036000AAAA3E00000000BF000000803F0000007D
:100370000000084178D3BB4387D1133D190E3CC31D
:10038000BD4282AD2B3E68EC8276BED98FE1A93E9C
:100390004C80EFFFBE01C4FF7F3F00000000000063
:1003A0000C9446D30C9494830C94C8C90C943D7F50
:1003B0000C9490D30C9429830C94D3D30C946B7D20
:1003C0000C9483800C942F600C94B1C90C94BE7F64
:1003D0000C9447C90C94017E0C94767D0C94F3FB2D
:1003E0000C9487830C940D7F0C94C97E0C94D1C817
:1003F0000C9476800C94DB830C94817D0C94607D4E
:100400000C94CB800C9483C80C94B7800C942F83ED
:100410000C9447830C94A6C90C9469800C94928127
:100420000C9464C90C944B820C94B0820C94B37FEE
:100430000C943F800C94FEC80C94F3C80C94B1D675
:100440000C9456810C946EC90C94E2C80C9468D636
:100450000C94FC810C94667F0C94CFD60C9442D6FD
:100460000C94C97F0C94DCC80C9435800C94C3C9DF
:100470000C9464820C9480D30C947C9F0C94EE8238
:100480000C94E0810C94E7C80C94AB830C94DB7F54
:100490000C94BCC90C949ED30C94BEC80C94755F8C
:1004A0000C94F2810C9493C80C9400830C94E18218
:1004B0000C94EB7E0C949AD30C94D4830C94A87F68
:1004C0000C9456D60C94F57D0C9476810C9498C9B6
:1004D0000C94729B0C94D8D30C943D810C94A27D07
:1004E0000C94A5D30C94D3C90C9416810C9458C8C1
:1004F0000C94DDD20C94869F0C9468830C94FC9A27
:100500000C9442C90C948E7F0C942EC90C94ACC9E7
:100510000C946E9F0C94CFD30C94BD7E0C943E82B1
:100520000C9438D60C949B610C949D7F0C943CC920
:100530000C9498C80C94BDD30C9452C90C94349B61
:100540000C948DC90C944DC80C94677E0C94D67D88
:100550000C94857F0C9477C80C947F830C944DC9C0
:100560000C946CC80C949E7E0C94B9810C94C1D3ED
:100570000C94F9C80C94C1800C948C7D0C9484D696
:100580000C94EEC80C949DD60C9459C90C9484829A
:100590000C94D7C80C94A9D30C94E59A0C9469C90F
:1005A0000C9403C90C94A3800C947C5F0C94B7D377
:1005B0000C94A7D60C941E7F0C94B3D30C942EAE3F
:1005C0000C94699F0C9499800C94F5D20C94C5D628
:1005D0000C94AD7D0C94457E0C94D4820C945D8378
:1005E0000C945EC90C9473830C94237E0C940D813F
:1005F0000C94D37F0C94567E0C94A1D30C94F49B52
:100600000C94E4800C94C3C80C94FC7E0C9488C8B1
:100610000C9486610C9474820C945ED30C94A0822A
:100620000C94347E0C9453C80C9424820C943F8315
:100630000C9471C80C9491800C94CBD30C9466816B
:100640000C94BD830C9453800C947AD60C94C68180
:100650000C948ED60C94A2810C94B8C80C94C583CB
:100660000C9449800C9466C80C94BBD60C943460EE
:100670000C94739F0C940A830C9423C90C942F7FC1
:100680000C9493C90C94977D0C9437830C94757ECD
:100690000C94B5830C948EC80C94D8C90C94D38157
:1006A0000C94EE800C945A7D0C94DD9A0C942F805F
:1006B0000C9470D60C94569B0C9494D30C94D580C7
:1006C0000C944CD60C94127E0C9495820C9423813D
:1006D0000C94F6D20C9487810C9429C90C9460D6A2
:1006E0000C94CEC90C94DA7E0C94AFD30C94018098
:1006F0000C948B610C943DD60C947CC80C94C5D39F
:100700000C941B820C94B7C90C9431820C94B3D214
:100710000C9430810C94C7820C94129B4E414E492C
:100720004E495459494E46CDCCCC3D0AD7233C17AF
:10073000B7D13877CC2B329595E6241FB14F0A00FC
:100740000020410000C84200401C4620BCBE4CCAEC
:100750001B0E5AAEC59D74434F4D4D554E494341F6
:1007600054494F4E0044525952554E004552524F33
:10077000525300494E464F004543484F007374653D
:10078000616C746843686F700047322F4733206292
:10079000616420706172616D65746572730A005ADC
:1007A0002050726F62652050617374204265640A44
:1007B00000486F6D652058592066697273740A008D
:1007C000205A3A200020593A200042656420583AC5
:1007D00020004D65736820706F696E742063616ED0
:1007E0006E6F74206265207265736F6C7665640A43
:1007F0000025697920256964202569682025696DAF
:1008000020256973005072696E742074696D653AB1
:1008100020006F66660044454255473A004D31312D
:10082000322053687574646F776E004D3131332018
:1008300053004348414D4245525F54454D50455247
:100840004154555245004D4F54494F4E5F4D4F4412
:10085000455300544845524D414C5F50524F54450A
:100860004354494F4E004155544F5245504F5254F6
:100870005F53445F5354415455530050524F4D50B1
:10088000545F535550504F525400454D45524745C3
:100890004E43595F50415253455200434153455FC7
:1008A0004C494748545F4252494748544E45535378
:1008B00000544F47474C455F4C49474854530053F9
:1008C0004F4654574152455F504F5745520042558D
:1008D000494C445F50455243454E54004C455645A3
:1008E0004C494E475F44415441005A5F50524F4279
:1008F00045004155544F4C4556454C005052494EC9
:10090000545F4A4F420050524F47524553530041A3
:1009100055544F5245504F52545F54454D50005618
:100920004F4C554D455452494300454550524F4D4B
:100930000042494E4152595F46494C455F5452412D
:100940004E534645520053455249414C5F584F4E15
:100950005F584F4646004649524D574152455F4EFB
:10096000414D453A4D61726C696E20322E302E3306
:1009700020284769744875622920534F55524345D2
:100980005F434F44455F55524C3A68747470733AF4
:100990002F2F6769746875622E636F6D2F4D6172BA
:1009A0006C696E4669726D776172652F4D61726C0C
:1009B000696E2050524F544F434F4C5F564552532F
:1009C000494F4E3A312E30204D414348494E455F04
:1009D000545950453A5A2D426F6C7420506C7573BF
:1009E0002045585452554445525F434F554E543A52
:1009F0003120555549443A63656465326132662D4C
:100A0000343161322D343734382D396231322D632F
:100A100035356336326633363766660A002F2F2047
:100A200000416363656C65726174696F6E3A205052
:100A3000003F4A206F7574206F662072616E676593
:100A40002028302E303120746F20302E33290A00B8
:100A500020204D61783A200020204D696E3A200018
:100A6000536F667420656E6473746F70733A200000
:100A700020466C6F773A200050726F74656374651E
:100A8000642050696E0A00206F7574206F662072B2
:100A9000616E67650A0020536572766F20002064DE
:100AA0003A0020693A0020703A00646973004329D3
:100AB0000A0061626C656420286D696E2074656D42
:100AC000702000436F6C6420657874727564657380
:100AD0002061726520004D34323120696E636F727F
:100AE0007265637420706172616D657465722075E2
:100AF000736167650A00546F6F20666172206672C9
:100B00006F6D207265666572656E636520706F69D2
:100B10006E740A00454550524F4D204F4B0A003F1E
:100B20005A206F7574206F662072616E6765202889
:100B3000003F59206F7574206F662072616E676583
:100B400020282D003F58206F7574206F6620726139
:100B50006E676520282D0050726F6265204F6666B3
:100B60007365742058003F4B2076616C7565206F6B
:100B70007574206F662072616E67652028302D3194
:100B800030292E0A00416476616E6365204B3D007A
:100B9000206472697665722063757272656E743A4C
:100BA00020007370726561644379636C6500206432
:100BB0007269766572206D6F64653A090078077313
:100BC000076C076507570724F4D43050C38E20C242
:100BD000A24017828B7011127A910D816CD90AA8EC
:100BE00061E108C7586607615143061E4B5D05C1A8
:100BF00045A7041A411104093D9803713931034096
:100C000036DB0265339102D4305402802E1D02631C
:100C10002CEE01752AC501B028A001102781018F93
:100C20002564012B244B01E0223401AC211F018DEE
:100C3000200D01801FFC00841EED00971DDF00B811
:100C40001CD200E61BC600201BBC00641AB200B216
:100C500019A8000A19A0006A189900D1179100403C
:100C6000178B00B516840031167E00B31579003A53
:100C7000157300C7146F0058146A00EE13660088DD
:100C800013630025135E00C7125B006C125700153A
:100C9000125400C111510070114F0021114B00D6A8
:100CA0001049008D1047004610440002104200C059
:100CB0000F4000800F3E00420F3C00060F3B00CB70
:100CC0000E3800930E37005C0E3500270E3400F30B
:100CD0000D3200C10D3100900D3000600D2E00323C
:100CE0000D2D00050D2C00D90C2B00AE0C29008514
:100CF0000C29005C0C2700350C27000E0C2600E8A0
:100D00000B2400C40B2400A00B23007D0B23005AEE
:100D10000B2100390B2100180B2000F80A1F00D905
:100D20000A1E00BB0A1E009D0A1D00800A1D0063EA
:100D30000A1C00470A1B002C0A1B00110A1A00F7A4
:100D4000091A00DD091900C4091900AB091900923C
:100D50000917007B091800630917004C09160036B3
:100D6000091600200916000A091500F5081500E00B
:100D7000081400CC081400B8081400A4081400904B
:100D80000813007D0812006B081300580812004673
:100D90000812003408110023081100120811000184
:100DA000081100F0071000E0071000D0071000C085
:100DB000071000B0070F00A107100091070E008375
:100DC000070F0074070F0065070E0057070E004954
:100DD000070E003B070D002E070E0020070D001325
:100DE000070D0006070D00F9060C00ED060D00E0EA
:100DF000060C00D4060C00C8060C00BC060C00B0A3
:100E0000060C00A4060B0099060C008D060B008250
:100E1000060B0077060B006C060B0061060A0057F4
:100E2000060B004C060A0042060A0038060A002E8D
:100E3000060A0024060A001A060A0010060900071E
:100E4000060A00FD050900F4050900EB050900E2AA
:100E5000050900D9050900D0050900C7050900BE2C
:100E6000050900B5050800AD050800A50509009CA9
:100E7000050800940508008C050800840508007C1E
:100E8000050800740508006C050700650508005D8D
:100E9000050700560508004E0507004705070040F6
:100EA00005080038050700310507002A050700235B
:100EB0000507001C050600160507000F05070008BA
:100EC00005060002050700FB040600F5040700EE16
:100ED000040600E8040600E2040700DB040600D56F
:100EE000040600CF040600C9040600C3040600BDC2
:100EF000040600B7040600B1040500AC040600A611
:100F0000040600A00405009B04060095040500905B
:100F10000406008A04050085040500800406007AA2
:100F200004050075040500700405006B04050066E7
:100F3000040500610405005C040500570405005227
:100F40000405004D04050048040500430405003E67
:100F50000404003A04050035040500300404002CA4
:100F600004050027040400230405001E0404001ADD
:100F700004040016040500110404000D0404000913
:100F80000405000404040000040400FC030400F849
:100F9000030400F4030400F0030400EC030400E87D
:100FA000030400E4030400E0030400DC030400D8AD
:100FB000030400D4030400D0030400CC030400C8DD
:100FC000030300C503030024F404D9201BC40C5CF4
:100FD0000E9804C4095F0265077101F405F900FB6E
:100FE00004B30048048700C1036900580355000397
:100FF000034500BE023A008402310053022A002950
:1010000002250004022000E4011C00C8011900AF01
:101010000117009801140084011300710110006190
:1010200001100051010E0043010D0036010B002B91
:10103000010B0020010B00150109000C0109000340
:10104000010800FB000800F3000800EB000700E4C3
:10105000000600DE000600D8000600D2000600CC24
:10106000000500C7000500C2000500BD000400B96E
:10107000000400B5000400B1000400AD000400A9A4
:10108000000400A5000300A20003009F0004009BD1
:1010900000030098000300950002009300030090F5
:1010A0000003008D0002008B000300880002008610
:1010B00000020084000300810002007F0002007D26
:1010C0000002007B00020079000200770001007638
:1010D0000002007400020072000100710002006F43
:1010E0000002006D0001006C0002006A000100694E
:1010F0000002006700010066000100650001006455
:101100000002006200010061000100600001005F58
:101110000002005D0001005C0001005B0001005A5C
:10112000000100590001005800010057000100565D
:10113000000100550001005400010053000000535D
:101140000001005200010051000100500001004F59
:101150000001004E0000004E0001004D0001004C57
:101160000001004B0000004B0001004A0001004953
:10117000000100480000004800010047000100464F
:101180000000004600010045000000450001004449
:101190000001004300000043000100420000004243
:1011A0000001004100000041000100400001003F3B
:1011B0000000003F0001003E0000003E0001003D35
:1011C0000000003D0001003C0000003C0000003C2D
:1011D0000001003B0000003B0001003A0000003A23
:1011E000000100390000003900010038000000381B
:1011F0000000003800010037000000370001003611
:101200000000003600000036000100350000003507
:1012100000000035000100340000003400000034FC
:1012200000010033000000330000003300010032F1
:1012300000000032000000320001003100000031E7
:1012400000000031000100300000003000000030DC
:101250000001002F0000002F0000002F0000002FD1
:101260000001002E0000002E0000002E0001002DC5
:101270000000002D0000002D0000002D0001002CBA
:101280000000002C0000002C0000002C0001002BAE
:101290000000002B0000002B0000002B0001002AA2
:1012A0000000002A0000002A0000002A0001002996
:1012B000000000290000002900000029000000298A
:1012C000000100280000002800000028000000287D
:1012D0000000002800010027000000270000002770
:1012E0000000002700000027000100260000002663
:1012F0000000002600000026000000260001002556
:101300000000002500000025000000250000002549
:10131000000000250001002400000024000000243B
:10132000000000240000002400010023000000232E
:101330000000002300000023000000230000002321
:101340000000002300010022000000220000002213
:101350000000002200000022000000220001002105
:1013600000000021000000210000002100000021F9
:1013700000000021000000210001002000000020EA
:1013800000000020000000200000002000000020DD
:1013900000000020000000200001001F0000001FCE
:1013A0000000001F0000001F0000001F0000001FC1
:1013B0000000001F0001001E0000001E0000001EB3
:1013C0000000001E000000232C0000B82200005680
:1013D0001800003A0F0000B8080000B104000071C6
:1013E0000200003E0100004D3231004D3233202515
:1013F00073004D323400726F746174696F6E206DCA
:1014000061747269783A0A00493100206D61783A56
:1014100000206D696E3A0041786973200045727250
:101420006F722077726974696E6720746F2045450A
:1014300050524F4D210A00627573793A20706175E0
:1014400073656420666F7220696E7075740A00623D
:101450007573793A2070617573656420666F7220C8
:10146000757365720A00627573793A2070726F63E2
:10147000657373696E670A004E6F20436865636B1E
:1014800073756D2077697468206C696E65206E7560
:101490006D6265722C204C617374204C696E653AE4
:1014A0002000636865636B73756D206D69736D6192
:1014B0007463682C204C617374204C696E653A200B
:1014C000004C696E65204E756D62657220697320EF
:1014D0006E6F74204C617374204C696E65204E757C
:1014E0006D6265722B312C204C617374204C696ED7
:1014F000653A20004D313130002121204B494C4CC0
:101500002063617573656420627920746F6F206D4C
:1015100075636820696E6163746976652074696DAE
:1015200065202D2063757272656E7420636F6D6D1A
:10153000616E643A2000363726033C3D380E2E306B
:101540003E12131A1C1808440AFF43080907000139
:1015500020746F6F206C6F6E67206578747275737E
:10156000696F6E2070726576656E7465640A00201E
:10157000636F6C6420657874727573696F6E207028
:10158000726576656E7465640A0050726F62696E8A
:1015900067204661696C65640A0047323800446F11
:1015A0006E652E0A003F496E76616C696420737423
:1015B0006F7261676520736C6F742E0A3F55736597
:1015C000203020746F20003F5034206973206F6EEC
:1015D0006C7920617661696C61626C652077686501
:1015E0006E20616E204C43442069732070726573D5
:1015F000656E742E0A003F5032206973206F6E6C46
:101600007920617661696C61626C65207768656ECE
:1016100020616E204C4344206973207072657365AD
:101620006E742E0A0050726F62696E672061726F6D
:10163000756E642028004D65736820696E76616C54
:101640006964617465642E2050726F62696E6720F0
:101650006D6573682E0A004D657368207A65726F38
:1016600065642E0A0044656661756C742073746F3E
:101670007261676520736C6F7420302073656C65D0
:10168000637465642E0A004C6F6164696E67207430
:101690006573745F7061747465726E2076616C75C9
:1016A00065732E0A0A00496E76616C696420746560
:1016B00073745F7061747465726E2076616C7565A9
:1016C0002E20282D3120746F2032290A0A004C6FF9
:1016D000636174696F6E7320696E76616C696461B1
:1016E0007465642E0A0A00456E74697265204D6542
:1016F000736820696E76616C6964617465642E0A32
:101700000A0057616974696E6720666F72206865A8
:10171000617475702E0A003F537065636966696570
:101720006420582C5920636F6F7264696E61746510
:10173000206F7574206F6620626F756E64732E0A59
:10174000003F28522965706561742076616C75656B
:10175000206E6F7420706C61757369626C653B20DC
:101760006D757374206265206174206C656173749B
:1017700020312E0A003F2852296570656174206D62
:10178000757374206265207370656369666965644A
:10179000207768656E206E6F74207573696E6720A0
:1017A000616E204C43442E0A003F537065636966A6
:1017B000696564206E6F7A7A6C652074656D7065FA
:1017C000726174757265206E6F7420706C617573D0
:1017D00069626C652E0A003F5370656369666965CE
:1017E000642066696C616D656E742073697A65202A
:1017F0006E6F7420706C61757369626C652E0A007F
:101800003F537065636966696564207072696D65D0
:10181000206C656E677468206E6F7420706C6175E3
:101820007369626C652E0A003F5072696D65206CA9
:10183000656E677468206D757374206265207370BF
:1018400065636966696564207768656E206E6F748C
:10185000207573696E6720616E204C43442E0A0028
:101860003F537065636966696564206E6F7A7A6C50
:10187000652073697A65206E6F7420706C61757372
:1018800069626C652E0A003F526574726163746907
:101890006F6E204D756C7469706C696572206D7522
:1018A0007374206265207370656369666965642E70
:1018B0000A003F5370656369666965642052657408
:1018C00072616374696F6E204D756C7469706C69B8
:1018D0006572206E6F7420706C61757369626C65DF
:1018E0002E0A003F537065636966696564206C6108
:1018F00079657220686569676874206E6F742070FE
:101900006C61757369626C652E0A0043292E0A00AA
:101910003F5370656369666965642062656420741D
:10192000656D7065726174757265206E6F7420707C
:101930006C61757369626C65202834302D00473204
:1019400036207374617274696E672E2E2E0A000041
:1019500000000000000000000000000000964300AE
:101960000048430080B14300007042000070420014
:1019700000A0410202040000A0400000A0400000BE
:10198000A040FFFFFF0000000100000001000080F8
:1019900000555555000000400033333300AAAA2AF1
:1019A000004992240000002000C7711C0099991979
:1019B00000D1451700555515003BB11300244912BD
:1019C0000011111100000010000F0F0F00E3380E7E
:1019D0000043790D00CCCC0C00C3300C00E8A20B06
:1019E0000064210B00AAAA0A00703D0A009DD809D4
:1019F00000427B090092240900DCD3080088880893
:101A0000001042080000000800F0C10700878707A7
:101A10000075500700711C07003EEB0600A1BC06D4
:101A2000006990060066660600703E0600611806B2
:101A30000017F4050074D105005BB00500B29005F5
:101A400000627205005555050078390500B81E057D
:101A500000050505004EEC040087D40400A1BD0478
:101A60000090A7040049920400C17D0400EE6904BF
:101A700000C7560400444404005C320400082104FA
:101A80000041100400000004003FF00300F8E003F0
:101A90000026D20300C3C30300CCB503003AA80359
:101AA000000A9B0300388E0300C08103009F75036A
:101AB00000D0690300505E03001D53030034480347
:101AC00000913D03003333030016290300381F0340
:101AD0000097150300300C0300030303000BFA0208
:101AE0000049F10200BAE802005CE002002DD802D1
:101AF000002DD0020059C80200B0C0020031B90266
:101B000000DAB10200AAAA0200A0A30200BC9C0253
:101B100000FA9502005C8F0200DF880200828202D8
:101B200000457C02002776020027700200436A020B
:101B3000007C640200D05E02003F590200C85302DC
:101B400000486F6D696E67204661696C6564005777
:101B500061726E696E673A20486F6D696E672042E8
:101B6000756D702044697669736F72203C20310A6C
:101B7000002F333100092042616420726573706F59
:101B80006E736521002062797465733B2063726314
:101B900020004E6F20454550524F4D2E0A004545BE
:101BA00050524F4D206461746173697A652065728B
:101BB000726F722E0A003F4D65736820746F6F203C
:101BC00062696720666F7220454550524F4D2E0A5C
:101BD0000055424C2072657365740A00206C6F6179
:101BE0006465642066726F6D2073746F72616765DF
:101BF0002E0A004D65736820003F43616E277420F4
:101C0000656E61626C65200020696E697469616C43
:101C1000697A65642E0A0A002073746F7265642005
:101C200073657474696E6773207265747269657622
:101C30006564202800202863616C63756C6174659D
:101C40006429210A0020213D2000454550524F4D76
:101C500020435243206D69736D61746368202D20A9
:101C60002873746F7265642920002053697A653A7D
:101C70002000496E6465783A2000204D61726C69DD
:101C80006E3D563735290A00454550524F4D207656
:101C9000657273696F6E206D69736D61746368201E
:101CA00028454550524F4D3D004D65736820736186
:101CB00076656420696E20736C6F7420003F556EEA
:101CC00061626C6520746F2073617665206D657349
:101CD0006820646174612E0A0020736C6F743D008B
:101CE000206D65736865735F656E643D00453245C0
:101CF0004E443D00206D65736820736C6F747320D3
:101D0000617661696C61626C652E0A003F496E768E
:101D1000616C696420736C6F742E0A004D65736882
:101D2000206C6F616465642066726F6D20736C6FE8
:101D30007420003F556E61626C6520746F206C6F7B
:101D40006164206D65736820646174612E0A0048C7
:101D5000617264636F6465642044656661756C7468
:101D60002053657474696E6773204C6F6164656499
:101D70000A000080BB440080BB440000004100001A
:101D800016440000A0420000A04200004843F6882C
:101D90000B43B80B0000B80B00002C010000401FE3
:101DA0000000204A00205400205200556E696669E8
:101DB000656420426564204C6576656C696E6700D9
:101DC00020204D3930360020204D35363920533112
:101DD0000020204D393030204B004C696E65617217
:101DE00020416476616E63653A0A004472697665E3
:101DF00072207374657070696E67206D6F64653AE8
:101E00000A002054302045005374657070657220BC
:101E10006472697665722063757272656E743A0ACF
:101E20000020204D3835312058005A2D50726F62F5
:101E300065204F66667365740020204D3330342072
:101E4000500020204D333031205000504944207341
:101E5000657474696E67733A0A00206D657368650E
:101E6000732E0A0A00454550524F4D2063616E2083
:101E7000686F6C6420000A416374697665204D6563
:101E8000736820536C6F743A200020204D34323038
:101E900020530020204D323036205800486F6D65A9
:101EA000206F66667365743A0A0020204D32303523
:101EB000204200204A3C6A756E635F6465763E008E
:101EC000416476616E6365643A20423C6D696E5F81
:101ED0007365676D656E745F74696D655F75733E7C
:101EE00020533C6D696E5F66656564726174653E22
:101EF00020543C6D696E5F74726176656C5F6665D7
:101F00006564726174653E0020204D32303420508B
:101F100000416363656C65726174696F6E2028753A
:101F20006E6974732F7332293A20503C7072696E57
:101F3000745F616363656C3E20523C7265747261CC
:101F400063745F616363656C3E20543C74726176B8
:101F5000656C5F616363656C3E0A0020204D323022
:101F6000312058004D6178696D756D20416363655E
:101F70006C65726174696F6E2028756E6974732F59
:101F80007332293A0A00205A0020590020204D328D
:101F900030332058004D6178696D756D2066656538
:101FA0006472617465732028756E6974732F732968
:101FB0003A0A0053746570732070657220756E69FB
:101FC000743A0A0020204D3230302044300A00207C
:101FD000204D3230302044002044697361626C65CA
:101FE000640A0046696C616D656E74207365747473
:101FF000696E67733A0020286D6D290020204732F2
:1020000031202020203B20556E69747320696E209A
:102010006D6D006F70656E005452494747455245DB
:1020200044007A5F6D6178007A5F6D696E00795F58
:102030006D696E00785F6D696E005265706F7274C5
:10204000696E6720656E6473746F70207374617459
:1020500075730A0020423A0020436F756E74204168
:102060003A0020453A00FFFDFCFAF8F6F4F2F0EEF3
:10207000ECEAE9E7E5E3E1E0DEDCDAD9D7D5D4D272
:10208000D0CFCDCBCAC8C7C5C3C2C0BFBDBCBAB90B
:10209000B7B6B4B3B2B0AFADACAAA9A8A6A5A4A276
:1020A000A1A09E9D9C9A99989795949392908F8EBB
:1020B0008D8B8A8988878684838281807F7E7D7BE1
:1020C0007A797877767574737271706F6E6D6C6BE8
:1020D0006A696867666564636261605F5E5D5C5BD8
:1020E0005A5958585756555453525150504F4E4DB7
:1020F0004C4B4A4A49484746464544434242414080
:102100003F3E3E3D3C3B3B3A393838373635353437
:102110003332323130302F2E2E2D2C2B2B2A2929E1
:1021200028272726252524232322212120201F1E7E
:102130001E1D1C1C1B1B1A1919181817161615150D
:1021400014131312121111100F0F0E0E0D0D0C0C93
:102150000B0A0A090908080707060605050404030F
:10216000030202010000496E76616C6964206578A3
:102170007472756465720A0020573A00206D6178A8
:102180003A2000206D696E3A20004361703A006F7A
:102190006B00526573656E643A200023646566695E
:1021A0006E652044454641554C545F004B64200009
:1021B0004B6920004B702000504944204175746FDA
:1021C00074756E652066696E697368656421205058
:1021D000757420746865206C617374204B702C20BA
:1021E0004B6920616E64204B6420636F6E73746171
:1021F0006E74732066726F6D2062656C6F772069F4
:102200006E746F20436F6E66696775726174696F73
:102210006E2E680A00504944204175746F74756EC3
:1022200065206661696C6564212074696D656F75F0
:10223000740A000A20436C61737369632050494437
:10224000200A00204B643A2000204B693A200020ED
:102250004B703A20000A204E6F206F7665727368CB
:102260006F6F740A002054753A2000204B753A2095
:102270000020643A200020626961733A20005049CE
:1022800044204175746F74756E6520737461727447
:102290000A00504944204175746F74756E6520665C
:1022A00061696C6564212054656D70657261747537
:1022B000726520746F6F20686967680A005049442E
:1022C000204175746F74756E65206661696C656414
:1022D0002120426164206578747275646572206E95
:1022E000756D6265720A002020506C616E6E6572B9
:1022F00042756666657242797465733A20002046BD
:10230000726565204D656D6F72793A2000436F6D7F
:1023100070696C65643A204D61722032362032302B
:1023200032300A00204C617374205570646174650A
:10233000643A20323032302D30312D3331207C2040
:10234000417574686F723A20284C69533932290AF2
:1023500000322E302E330A004D61726C696E0020FF
:10236000536F6674776172652052657365740A00F5
:10237000205761746368646F672052657365740ADF
:10238000002042726F776E206F75742052657365FE
:10239000740A002045787465726E616C2052657312
:1023A00065740A00506F77657255700A00205A3ABA
:1023B0000020593A0020583A00656E6473746F70BB
:1023C00073206869743A200048656174696E6720FB
:1023D0006661696C65640048656174696E67204672
:1023E00061696C656400202D20496E76616C6964BA
:1023F000206578747275646572206E756D626572A1
:1024000020210A00544845524D414C2052554E411E
:1024100057415900546865726D616C2052756E6148
:10242000776179004572723A204D415854454D50BC
:10243000004D415854454D5020747269676765726C
:102440006564004572723A204D494E54454D500026
:102450004D494E54454D50207472696767657265E9
:102460006400202F002042403A0020403A007001D2
:102470002C0190012701B0012201C0011D01F001D2
:1024800018011002130130020E01600209019002CE
:102490000401C002FF000003FA004003F5008003BE
:1024A000F000D003EB002004E6007004E100E0043B
:1024B000DC004005D700C005D2004006CD00D006A4
:1024C000C8008007C3003008BE00F008B900C0098A
:1024D000B400B00AAF00B00BAA00D00CA500000EEB
:1024E000A000500F9B00C0109600501291000014E5
:1024F0008C00C0158700B0178200B0197D00D01B7A
:102500007800001E730040206E0090226900F024C5
:10251000640040275F0090295A00E02B5500102EE0
:10252000500020304B0010324600E033410090351F
:102530003C001037370070383200A0392D00B03A17
:102540002800A03B2300603C1E00103D1900903D78
:102550001400103E0F00703E0A00C03E0500003F10
:102560000000403FFBFF803FF6FFC03FF1FF3F45CB
:102570004550524F4D2073746F72616765206E6FC6
:102580007420617661696C61626C652E0A00537417
:10259000616E6461726420446576696174696F6E0E
:1025A0003A20004F46460A00466164652048656946
:1025B0006768742000426564204C6576656C696EBE
:1025C0006720004661696C656420746F20656E61E8
:1025D000626C6520426564204C6576656C696E6747
:1025E0000A00496E76616C6964206D6573682E0A15
:1025F0000076616C69640A53746F72616765207359
:102600006C6F743A20004D65736820697320003F39
:10261000496E76616C69642073746F7261676520BE
:10262000736C6F742E0A002052616E67653A200049
:102630004D65616E3A200046696E69736865642174
:102640000A002072616E67653A2000207369676D29
:10265000613A2000206D65616E3A20003A207A3A96
:102660002000206F662000476F696E6720746F3A04
:1026700020580043570A00206469723A0020616EB6
:10268000676C653A00537461727420726164697595
:10269000733A00506F736974696F6E696E67207466
:1026A00068652070726F62652E2E2E0A003F4E758F
:1026B0006D626572206F66206C65677320696E209D
:1026C0006D6F76656D656E74206E6F7420706C61D1
:1026D000757369626C652028302D3135292E0A000A
:1026E0003F2028582C5929206F7574206F6620626E
:1026F0006F756E64732E0A003F53616D706C6520B8
:1027000073697A65206E6F7420706C61757369628D
:102710006C652028342D3530292E0A004D343820A0
:102720005A2D50726F6265205265706561746162E6
:10273000696C69747920546573740A003F285629BE
:102740006572626F7365206C6576656C20696D706B
:102750006C61757369626C652028302D34292E0AEE
:102760000042656400453100626564002C20737985
:102770007374656D2073746F707065642120486593
:10278000617465725F49443A20000900000A010043
:1027900008000A01000A090000000A000800992741
:1027A00094278F278A275D0A0062656420706C6118
:1027B0006E65206E6F726D616C203D205B00436F13
:1027C000756C64206E6F7420636F6D706C657465DA
:1027D000204C5346210054696C74696E67206D6506
:1027E000736820706F696E7420003F4572726F725B
:1027F0002070726F62696E6720706F696E742E2030
:1028000041626F7274696E67206F7065726174697E
:102810006F6E2E0A0054696C74696E67206D657363
:10282000682028332F33290A0054696C74696E6755
:10283000206D6573682028322F33290A00436F7298
:102840007265637465645F5A3D0054696C74696EA7
:1028500067206D6573682028312F33290A004C4F9B
:10286000570048494748004F4B004572726F723A13
:1028700020416C6C200020636F6E6E656374696F1D
:102880006E2E2E2E200054657374696E6720003002
:102890003D2E33323500313D2E313800536574748E
:1028A000696E67732053746F72656420280000009E
:1028B0002100240027002A002D00300033000101F0
:1028C0000000040107010A0100000A0B02090C0DB7
:1028D0000E080703040100000000000000000000D3
:1028E00000000000000000000000000000000000E8
:1028F00000000000121110000000000000000000A5
:1029000000000000000000000000000000000000C7
:1029100020002300260029002C002F003200000197
:102920000000030106010901000022002500280023
:102930002B002E00310034000201000005010801C7
:102940000B01050505050705080808080202020233
:102950000A0A08080404040401010101010101013B
:102960000303030303030303040707070C0C0C0C06
:102970000C0C0C0C020202020606060606060606EF
:102980000B0B0B0B0B0B0B0B01021020200808107C
:1029900020401020408002010201080402010102CF
:1029A00004081020408080402010080402018004A8
:1029B0000201804020100804020108040201010203
:1029C00004081020408001020408102040804D655A
:1029D000616E204D657368204865696768743A20A8
:1029E0000023206F662073616D706C65733A200060
:1029F0000A50726F62696E67206D65736820706F30
:102A0000696E742000496E76616C6964206D617036
:102A100020747970652E0A0A003F28462961646592
:102A20002068656967687420666F7220426564205B
:102A30004C6576656C20436F7272656374696F6E66
:102A4000206E6F7420706C61757369626C652E0AFC
:102A50000A003F43616E2774206163746976617474
:102A60006520616E64206465616374697661746574
:102A7000206174207468652073616D652074696DD0
:102A8000652E0A0A00426F746820582026205920BB
:102A90006C6F636174696F6E73206D7573742062FF
:102AA00065207370656369666965642E0A0A003F74
:102AB000496E76616C696420677269642073697A13
:102AC0006520284A292073706563696669656420FA
:102AD00028322D39292E0A0A003F285029686173AF
:102AE000652076616C756520696E76616C6964201D
:102AF00028302D36292E0A0A003F28562965726291
:102B00006F7365206C6576656C20696D706C61759E
:102B10007369626C652028302D34292E0A0A003F23
:102B2000285229657065746974696F6E20636F75CA
:102B30006E7420696E76616C69642028312B292EB1
:102B40000A0A00646F6E650A00496E7375666669ED
:102B50006369656E7420646174610A0045787472FB
:102B600061706F6C6174696E67206D6573682E2E7D
:102B70002E0053544F505045442E20005072696E21
:102B80007465722073746F7070656420647565205D
:102B9000746F206572726F72732E2046697820748C
:102BA0006865206572726F7220616E64207573654E
:102BB000204D39393920746F2072657374617274D5
:102BC0002E202854656D7065726174757265206978
:102BD000732072657365742E2053657420697420A8
:102BE00061667465722072657374617274696E6770
:102BF000290A0021212053544F502063616C6C65D9
:102C0000642062656361757365206F6620424C5471
:102C10006F756368206572726F72202D2072657304
:102C2000746172742077697468204D3939390A00EB
:102C300000007041398E0742721C534256558F4234
:102C4000721CB5428EE3DA4256550043E438134312
:102C5000721C2643000039430000704100003442DA
:102C6000000096420000D2420000074300002543C6
:102C7000000043430000614300007F4300808E4317
:102C80005072696E7465722068616C7465642E2080
:102C90006B696C6C28292063616C6C6564210A0087
:102CA0006563686F3A004572726F723A0066616CD4
:102CB000736500747275650020204D3432312049EF
:102CC000002020473239204939390A00616374698C
:102CD00076650A002053797374656D2076312E3045
:102CE0003120002020207C0A004E414E0020202E62
:102CF00020202000207C004C43443A0A00435356D5
:102D00003A0A0020666F7220003A0A0A000A4265F9
:102D10006420546F706F67726170687920526570BB
:102D20006F727400204D39322058004452565F5360
:102D30005441545553090050574D5F5343414C453E
:102D4000090050574D434F4E460900434F4F4C43E7
:102D50004F4E46090043484F50434F4E46090054DA
:102D60004849474809090054434F4F4C544852536F
:102D700009005450574D5448525309005453544578
:102D80005009090054504F574552444F574E0900BF
:102D9000494F494E09090047535441540909004914
:102DA000484F4C445F4952554E090047434F4E46E9
:102DB00009090044726976657220726567697374E7
:102DC0006572733A0A007332767362090073327661
:102DD0007361090031323043090031343343090053
:102DE0003135304309003135374309006F7409002C
:102DF0006F7470770900733267610900733267621C
:102E000009006F6C6109006F6C6209007374737460
:102E10000900445256535441545553005374616C45
:102E20006C67756172642074687273002D737461CD
:102E300072740900687973746572657369730A2D19
:102E4000656E640900626C616E6B2074696D65006B
:102E50006F66662074696D65004F542070726577E7
:102E600061726E005B6D6D2F735D090070776D0A86
:102E70007468726573686F6C64007473746570094C
:102E8000006D737465707309007673656E73650900
:102E90000050574D207363616C650043532061639C
:102EA0007475616C00486F6C642063757272656E36
:102EB000740052756E2063757272656E74004D41B8
:102EC000582063757272656E7400524D532063759D
:102ED0007272656E74005365742063757272656EEC
:102EE0007400456E61626C6564090020496E76610C
:102EF0006C69642065787472756465722000486F2F
:102F00006D652025732573257320466972737400DF
:102F1000307800220A00556E6B6E6F776E20636FFB
:102F20006D6D616E643A20220000F3FB11241FBE18
:102F3000CFEFD1E2DEBFCDBF00E00CBF13E0A0E0D9
:102F4000B2E0EEE9F8E102E00BBF02C007900D929B
:102F5000A237B107D9F722E1A2E7B3E001C01D9281
:102F6000A238B207E1F717E1C6E9D7E100E006C0F1
:102F700021970109802FFE010F946F07C539D107F2
:102F800080E00807A9F70E943BF70D944D0C0C94C4
:102F900000002F923F924F925F926F927F928F929A
:102FA0009F92AF92BF92CF92DF92EF92FF920F93D8
:102FB0001F93CF93DF93CDB7DEB7A7970FB6F894E3
:102FC000DEBF0FBECDBF8FA320917F032EA3FF24B2
:102FD000F394F0927F0380913A0E8D3409F439C353
:102FE000843511F40C94D327873411F00C94DA272C
:102FF0008091380E9091390E8A31910509F41AC1E9
:1030000094F48430910534F482309105CCF597FF27
:103010002BC01BC38430910509F4CDC0459711F432
:103020000C94DC2712C38A32910509F45CC264F463
:103030008D31910509F412C18E31910509F412C147
:103040004C9709F002C3FAC08B35910509F4C8C149
:103050008C35910509F4C9C18A35910509F0F5C28D
:1030600010927E030C94DC2780915B02882311F47C
:103070000C94DC270E94EFF00E9470740C94DC2703
:1030800020915B02222311F40C94DC2711E00297BB
:1030900009F010E00E94EFF019821A821B821C8254
:1030A0001D821E821F82188682E50E946456882334
:1030B00009F44BC00E94E4556B017C0120E030E034
:1030C000A9010F94D102882309F455C08091E4101E
:1030D0009091E510A091E610B091E7108A8F9B8F38
:1030E000AC8FBD8F8091E8109091E910A091EA100B
:1030F000B091EB108E8F9F8FA8A3B9A380906D1015
:1031000090906E10A0906F10B09070104090711061
:10311000509072106090731070907410A50194011B
:103120006A8D7B8D8C8D9D8D0F94D10281110C94B5
:10313000F227A30192016E8D7F8D88A199A10F9432
:10314000D1028823C1F00C94F22789E40E946456CE
:10315000882331F00E94E45569837A838B839C83B2
:103160008AE40E946456882331F00E94E4556D83FE
:103170007E838F83988720E030E0A90169817A817E
:103180008B819C810F94D10281110C94A62820E0A0
:1031900030E0A9016D817E818F8198850F94D102E5
:1031A00081110C94A6280E9449F089E897E00E94BA
:1031B000CEED0C94DC2780E50E946456882379F0DC
:1031C00080917B0390917C03009749F04AE050E0A6
:1031D00060E070E00F942E016B017C0103C0C12CF4
:1031E000D12C760183E50E946456882361F00E9409
:1031F000E45520E030E04AE754E40F9437030F949D
:1032000022096B017C010E940B980E9412D7C60E06
:10321000D71EE81EF91E0E9412D7DC01CB018C19C3
:103220009D09AE09BF09B7FD02C00C94DC270E94BE
:10323000313CF1CF0E944A650C94DC278091C10D8E
:103240008770873011F00C94B92860E08FE40E94F9
:10325000356581110C94DC270C94B9280E94BD5B64
:103260000C94DC272091E70D3091E80D4091E90D99
:103270005091EA0D6091E4107091E5108091E61094
:103280009091E7100F94AF07AB01BC0188E50E9455
:10329000F5A269837A838B839C832091EB0D309117
:1032A000EC0D4091ED0D5091EE0D6091E810709194
:1032B000E9108091EA109091EB100F94AF07AB01E9
:1032C000BC0189E50E94F5A26D837E838F83988778
:1032D000BE016B5F7F4FCE0101960E943359882358
:1032E00011F40C94DC2780E00E94E1EB0E94338D06
:1032F00061E085E40E94356521E041E0682FCE0160
:1033000001960E94E7596B017C019B01AC010F946F
:10331000FC0A81115FC089809A80AB80BC8020E06C
:1033200030E0A901C501B4010F94D10287FF05C0A7
:1033300027E137EB41E558EB04C027E137EB41E5E6
:1033400058E3C501B4010F94AF07AB01BC018AEC8F
:1033500097E00E9418F08D809E80AF80B88420E0B6
:1033600030E0A901C501B4010F94D10287FF05C067
:1033700027E137EB41E558EB04C027E137EB41E5A6
:1033800058E3C501B4010F94AF07AB01BC0185EC54
:1033900097E00E9418F020E030E0A901C701B601D3
:1033A0000F94D10287FF05C027E137EB41E558EBC9
:1033B00004C027E137EB41E558E3C701B6010F949C
:1033C000AF07AB01BC0180EC97E00E9418F08AE0E7
:1033D0000E94EE3A0E941A8D0E9437900C94DC27CE
:1033E0008FE080937E030C94DC2711E7212E12E0FE
:1033F000312E05EBE02E0DE0F02EA4EEB0E1BB8FF8
:10340000AA8F89EAC82E8DE0D82E00E010E0F101E5
:1034100081911F010E946456882309F44AC00E94CA
:10342000E4552B013C01133049F0D6012D913D911B
:103430004D915C910F94AE072B013C01EA8DFB8D01
:103440002081318142815381C301B2010F94AE07C3
:103450004B015C012DEB37E346E855EB0F940F0A67
:1034600087FD0AC02DEB37E346E855E3C501B401FB
:103470000F94D1021816ECF4133051F44092F0106E
:103480005092F1106092F2107092F31001E011C0AE
:10349000A5019401D7016D917D918D919C910F941F
:1034A000AF07F7016083718382839383812F0E942A
:1034B00062721F5FF4E0EF0EF11C2A8D3B8D2C5FD2
:1034C0003F4F3B8F2A8F34E0C30ED11C143009F0DC
:1034D0009ECF002321F080EF90E10E941B980E9474
:1034E00037900C94DC2780915B02882311F40C94B4
:1034F000DC2789E40E946456082F882321F00E946B
:10350000E055E82E01C0E12C8AE40E946456182F91
:10351000882321F00E94E055F82E01C0F12C0023F1
:1035200019F089E08E1528F0112349F099E09F15D4
:1035300030F482ED97E00E94CEED0C94DC2780E120
:10354000E4EEF0E1ADE6B0E101900D928A95E1F78D
:10355000002359F08E2D0E94B35660936D10709326
:103560006E1080936F1090937010112359F08F2D6F
:103570000E9485566093711070937210809373103F
:103580009093741060E080E50E9435658823C1F156
:103590000023D1F02091E70D3091E80D4091E90D25
:1035A0005091EA0D60916D1070916E1080916F10C6
:1035B000909170100F94AE0760936D1070936E1021
:1035C00080936F10909370101123D1F02091EB0D28
:1035D0003091EC0D4091ED0D5091EE0D6091711018
:1035E0007091721080917310909174100F94AE07C7
:1035F0006093711070937210809373109093741095
:1036000040E050E0BA0186E40E94F5A26B017C0123
:1036100020E030E0A9010F940F0A18164CF420E0C6
:1036200030E040E752E4C701B6010F94A90803C097
:1036300060E070E0CB0169837A838B839C83CE0149
:1036400001960E94528E0C94DC270E94CFF50C94B8
:10365000DC278091380E9091390E8B39910509F451
:1036600030C40CF007C18A36910509F42BC30CF065
:103670005CC08D34910509F4C6C204F58A32910507
:1036800009F47AC26CF48231910509F452C48F3185
:10369000910509F4CAC1419711F00C94D027B1C12A
:1036A0008B34910509F496C20CF098C2C09711F0C2
:1036B0000C94D0270E9411B90C94DC278435910515
:1036C00009F437C4ECF48235910509F422C40CF0F6
:1036D00028C48135910511F00C94D0270E9417B3AE
:1036E0000E946ED00E94009A10920005109201056F
:1036F00068EE73E080E090E00E9434ED0C94DC27EB
:103700008C35910509F467C434F48535910509F4C5
:103710003DC40C94D0278836910509F478C28936C7
:10372000910509F4BBC20C94D0278237910509F4A6
:10373000DEC49CF48E36910509F4FDC23CF48C364F
:10374000910509F456C30CF4E7C281C28037910594
:1037500009F453C30CF402C357C38737910509F426
:1037600007C50CF076C08537910511F40C94DC2761
:103770000CF0C2C48337910511F00C94D02786E574
:1037800099E00E94CEED60E086E499E00E9414AEDC
:1037900060E081E399E00E9414AE61E08AE299E082
:1037A0000E9414AE61E08FE199E00E9414AE61E0E6
:1037B0008FE099E00E9414AE60E086E099E00E94FC
:1037C00014AE61E08CEF98E00E9414AE61E082EFED
:1037D00098E00E9414AE61E08AEE98E00E9414AE78
:1037E00061E08CED98E00E9414AE60E08EEC98E011
:1037F0000E9414AE60E08FEB98E00E9414AE60E08F
:1038000081EB98E00E9414AE60E08BE998E00E94A2
:1038100014AE60E08AE898E00E9414AE60E08BE7A6
:1038200098E00E9414AE60E086E698E00E9414AE34
:1038300061E083E598E00E9414AE60E086E498E0E1
:103840000E9414AE60E082E398E00E9414AE0C94F3
:10385000DC278937910509F496C40CF48CC48A37A7
:10386000910511F40C9497268C38910509F4F6C251
:103870000C94D0278039A1E09A0711F40C9402250A
:103880000CF05AC0833D910509F477C544F58B3C93
:10389000910509F4F0C474F4883C910509F47AC4E4
:1038A000893C910509F4C3C48E3B910511F00C9439
:1038B000D027F2C28D3C910509F432C50CF4FCC44A
:1038C0008E3C910511F00C94D02741E7C42E42E0C4
:1038D000D42E59E4E52E5EE0F52E10E03BC588318C
:1038E000E1E09E0709F4BDC674F48D3D910509F42D
:1038F00017C6823E910509F469C68C3D910511F009
:103900000C94D02700C68E3221E0920711F40C945B
:10391000BB2434F48D32914009F43AC70C94D0277B
:103920008F32B1E09B0711F40C94FF248033914057
:1039300009F4AEC70C94D027853FF1E09F0711F43E
:103940000C940A2664F5843A31E0930711F40C9440
:10395000112594F48239B1E09B0711F40C940B25E6
:1039600014F40C9405258A39914011F00C94D02759
:103970000E9479380C94DC278C3A21E0920711F4EC
:103980000C94AA25843F31E0930711F40C94072688
:10399000853A914011F00C94D0270C94142589336A
:1039A000B2E09B0711F40C941F2784F4873FF1E0E9
:1039B0009F0711F40C94102614F40C940D26883FE4
:1039C000914011F40C9419260C94D0278438A3E06C
:1039D0009A0711F40C945B263CF48335934011F460
:1039E0000C942A260C94D0278A38F3E09F0711F410
:1039F0000C949A26873E934011F40C94C4270C949F
:103A0000D0278091320E84FF02C00C94CF29809180
:103A1000340E87FF02C00C94CF298091350E83703D
:103A200011F00C94CF290C94EB290E94FBCF7B0161
:103A30008C0120E831E541E050E00F94D806C9013F
:103A40006DE671E00F9447074B015C01C801B701B7
:103A500020E13EE040E050E00F94D806CA01B901F1
:103A600028E130E040E050E00F94D806762E672E33
:103A7000C62ED72EBCE32B2E312C412C512CC80145
:103A8000B701A20191010F94D806F62EE72ECA01C4
:103A9000B901A20191010F94D806CB018E010F5FED
:103AA0001F4F8114910499F0EF92FF927F936F93CF
:103AB0006F927F92BF92AF929F928F9281EF97E029
:103AC0009F938F931F930F930F94A20213C0A1147F
:103AD000B104B1F0EF92FF927F936F936F927F9258
:103AE000BF92AF9285EF97E09F938F931F930F93B1
:103AF0000F94A2020FB6F894DEBF0FBECDBF30C048
:103B0000CD2879F0EF92FF927F936F936F927F921F
:103B100089EF97E09F938F931F930F930F94A202C7
:103B2000E9CF892B69F0EF92FF927F936F938DEF2E
:103B300097E09F938F931F930F930F94A202DACF76
:103B4000EF92FF9281E098E09F938F931F930F93E2
:103B50000F94A2020F900F900F900F900F900F9064
:103B60000E944DF0B80185E098E00E9436F08AE0AE
:103B70000E94EE3A0C94DC2783E50E946456882369
:103B800011F40C94DC270E9455C7F82E6DE070E00C
:103B900080E50E9471568C0197FF02C00C94DC27CF
:103BA000873031F0893041F4F09200050C94DC2725
:103BB000F09201050C94DC2760E089E40E943565F1
:103BC00081110C94F429802F0E94E6F681111BC507
:103BD0000C94F4290E944AD00C94DC2780914C105C
:103BE000813011F00C94DC2782E080934C100E940D
:103BF00012D7609348107093491080934A109093A5
:103C00004B100C94DC270E946ED00C94DC27809122
:103C10005E0B83FF02C00C94DC270E94A9F187FF92
:103C200002C00C94DC2783E50E946456882359F077
:103C30000E94E4550F941B09CB010E94C89F61E0CC
:103C400080E00E94F2FA0E940BF70C94DC2780912E
:103C50005E0B83FF02C00C94DC270E94A9F1082FA1
:103C600087FF02C00C94DC2783E50E946456F82E7F
:103C700081110C94022A82E50E946456182F81114A
:103C80000C94022A0E940BF7112311F40C94DC27E8
:103C90006F2D802F0E9480A10C94DC270E94A9F137
:103CA000182F87FD0AC08FE891E20E94CEED812F88
:103CB0000E94F0B08AE00E94EE3A3EA130937F036A
:103CC0000C94342C60E080E50E9405B9F82E81E068
:103CD0008F1510F40C94DC2781E40E941B56882376
:103CE00021F060910005062F02C00FEF10E083E580
:103CF0000E946456882349F00E94D0558B016F3F83
:103D0000710519F010F00FEF10E0EF2DF0E0E0502A
:103D1000FB4F00830C94DC2760E080E50E9405B92E
:103D2000823010F00C94DC27E82FF0E0E050FB4FDD
:103D300010820C94DC278EE40E946456882311F4D0
:103D40000C94DC270E94D05560933D0E70933E0E7C
:103D500080933F0E9093400E0C94DC2783E50E94E5
:103D60001B56882331F060E083E50E9405B98093FB
:103D70005E0B0E944DF086E198E00E94CEED8091AE
:103D80005E0B882369F1ADEBEA2EABE0FA2E00E082
:103D900010E020E080915E0B90E0A0E0B0E0002E0B
:103DA00004C0B695A795979587950A94D2F780FF9A
:103DB0000EC0DD24D394D20E222319F08CE20E948F
:103DC000EE3AF701859194910E94CEED2D2D0F5F73
:103DD0001F4F92E0E90EF11C05301105D9F604C021
:103DE00082E198E00E94CEED8AE00E94EE3A0C94C7
:103DF000DC2710924C020C94DC2741E060E070E07C
:103E00008DE198E00E94B1F083E50E94645688231A
:103E100081F00E9455C7282F30E02D33310524F45E
:103E2000809300020C94DC278CE3809300020C94B6
:103E3000DC270E944DF0C0900002D12CE12CF12C27
:103E40008BE298E00E94CEED4AE0C701B6010E94E5
:103E5000F53A8AE00E94EE3A0C94DC2780915E0BE2
:103E600083FF02C00C94DC2783E50E9464568823FC
:103E700011F40C94DC270E94E4550F941B096E3654
:103E8000710514F06EE670E07093040E6093030EFB
:103E90000E94DFB20C94DC2780915E0B83FF02C08E
:103EA0000C94DC2783E50E946456182F81110C9432
:103EB000102A82E50E94645681110C94102A0C94F9
:103EC000DC2783E50E946456882311F40C94DC27D8
:103ED0000E9455C7182F90E0CD970CF01CE310936B
:103EE00076030E9412D76B017C01212F30E0A8EEEF
:103EF000B3E00F942C07C60ED71EE81EF91EC09221
:103F00007203D0927303E0927403F09275030C94E1
:103F1000DC2780917E038F7D806180937E030C94EB
:103F2000DC2780917E038F7E806280937E030C94D9
:103F3000DC2783E50E9464568823A1F00E94E455A3
:103F400020E030E04AE754E40F9437030F9422094D
:103F50006093010270930202809303029093040223
:103F60000C94DC278091320E84FF02C00C94282A26
:103F70008091340E87FF02C00C94282A8091350E60
:103F8000837011F00C94282A0C94542A83E50E9423
:103F90001B56882311F40C94DC270E9412D76093DF
:103FA000F70D7093F80D8093F90D9093FA0D0E9420
:103FB000E45520E030E04AE754E40F9437030F94CF
:103FC0002209609377037093780380937903909329
:103FD0007A030C94DC270E94A9F187FF02C00C949D
:103FE000DC279091320E94FD04C09091340E97FF1F
:103FF0000AC0E1E7CE2EE2E0DE2EFFE5EF2EFBE089
:10400000FF2E10E009C09091350E937091F7682F44
:1040100081E00E9436F4D0C7D6018D916D010E94D7
:104020006456882309F459C0133009F04FC00E9428
:10403000E4554B015C0120E030E040EA51E40F948C
:10404000D10287FF3AC0A501940160917F0B709166
:10405000800B8091810B9091820B0F94A9082B010A
:104060003C019B01AC0160918F0B7091900B809192
:10407000910B9091920B0F94370360938F0B709379
:10408000900B8093910B9093920B6091F40470913C
:10409000F5048091F6049091F7040F94D602A301E1
:1040A00092010F9437030F9422096093F4047093E4
:1040B000F5048093F6049093F70480927F0B90921E
:1040C000800BA092810BB092820B07C00E94E45536
:1040D000F701648B758B868B978B1F5FF4E0EF0E77
:1040E000F11C143009F098CF0E94E79765C70E9431
:1040F0000B980E94379060C70091360E1091370ED2
:1041000094E0F12C40E0915031F1D8018C91282FAE
:104110002B7F213429F411962C912133E1F408C02E
:104120008035C9F4F801818180538A3048F013C08A
:10413000813421F0853421F441E002C0FF24F3945E
:1041400098012E5F3F4F89012F5F3F4FD8018C911F
:104150008032C9F3D8CF41110E944DF0FF2021F0E9
:104160008DE19AE00E94CEEDC8010E940B3C24C76D
:104170000E94D08F21C781E08093450E8093440E2A
:104180000E94289019C71092450E1092440E0E946A
:10419000289012C70E94A9F1182F87FD0DC784E44B
:1041A0000E941B56882309F43FC00E94E4556B010E
:1041B0007C0101E020E030E0A9010F94D1028111DF
:1041C00001C000E00093DD0D20E030E0A901C7014F
:1041D000B6010F94D102882339F10E94E455B4E06E
:1041E0001B02F0011124EE51F24F60837183828330
:1041F000938320E030E0A9016091E20D7091E30D1E
:104200008091E40D9091E50D0F94D10281110CC0C5
:1042100080E090E0A0EEBFE38093E20D9093E30D89
:10422000A093E40DB093E50D0E94789AC5C60E9454
:10423000A9F187FDC1C671E7E72E72E0F72E0FE501
:104240001BE0F70181917F010E941B56882361F0DA
:104250000E94E4550F942209D8016D937D938D93AC
:104260009C9313970E9470970C5F1F4FBBE00F3613
:104270001B0739F7A1C60E94A9F187FD9DC661E71A
:10428000E62E62E0F62E0FE51BE0F70181917F013B
:104290000E941B56882349F00E94E455D801949649
:1042A0006D937D938D939C9397970C5F1F4FBBE00D
:1042B0000F361B0751F780C68091330E87FF02C06F
:1042C0000C94572A8091340E8E7011F00C94572A5A
:1042D0004091930B5091940B6091950B7091960BBC
:1042E00081E29AE00E9418F04091970B5091980B50
:1042F0006091990B70919A0B88EA9DE10E9418F0E9
:1043000040919B0B50919C0B60919D0B70919E0B6B
:1043100085EA9DE10E9418F08AE00E94EE3A4CC6C0
:104320008091320E81FF02C00C949D2A8091330E41
:1043300081FF02C00C949D2A8091340E8C7011F084
:104340000C949D2A39C61F5FB4E0EB0EF11C1330AC
:1043500009F4C5C8F60181916F010E941B5688239C
:1043600091F30E94E455D7016D937D938D939C93B7
:104370001397812F0E946272E6CF4090A90D509052
:10438000AA0D6090AB0D7090AC0D20911F02309182
:1043900020024091210250912202C301B2010F94E8
:1043A000AF076A8F7B8F8C8F9D8F8090AD0D909023
:1043B000AE0DA090AF0DB090B00D209123023091C2
:1043C00024024091250250912602C501B4010F94A8
:1043D000AF076AA37BA38CA39DA3C090B10DD0901F
:1043E000B20DE090B30DF090B40D20912702309102
:1043F00028024091290250912A02C701B6010F9468
:10440000AF076E8F7F8F88A399A320912B023091E5
:104410002C0240912D0250912E02C301B2010F9443
:10442000AF072B013C0120912F02309130024091C7
:10443000310250913202C501B4010F94AF074B0114
:104440005C01209133023091340240913502509149
:104450003602C701B6010F94AF076B017C010E94C1
:104460004DF080E69AE00E94CEED83E50E941B5657
:10447000882321F00E9425658093370280913702BE
:10448000882319F082E697E002C082E599E00E9455
:10449000CEED88E59AE00E94CEED4A8D5B8D6C8D65
:1044A0007D8D81E69FE10E9418F04AA15BA16CA17D
:1044B0007DA189E89FE10E9418F04E8D5F8D68A173
:1044C00079A186E89FE10E9418F082EF9CE20E94A9
:1044D000CEED80E59AE00E94CEEDB301A20181E627
:1044E0009FE10E9418F0B501A40189E89FE10E94B4
:1044F00018F0B701A60186E89FE10E9418F08AE053
:104500000E94EE3A59C583E50E946456882309F457
:1045100053C50E94E05590933902809338024CC5F0
:104520000E94A9F1F82E87FD47C583E50E946456D5
:104530000F2D0F2C000C110B882369F10E94E05500
:10454000F801EE0FFF1FE25CFD4F91838083000FA7
:10455000111F000F111FF801EF5EFD4F7F01BC011D
:10456000990F880B990B0F94D8022AE037ED43E29C
:104570005CE30F943703F801E252F24F208131815E
:10458000428153810F943703D7016D937D938D93AF
:104590009C93139711C50E944DF085E40E94EE3A5A
:1045A00080E38F0D0E94EE3AF801EE0FFF1FE25CF0
:1045B000FD4F6081718180E79AE00E9429F085E2D9
:1045C0000E94EE3A8AE00E94EE3AF6C480E50E942C
:1045D0001B56882309F4F0C460E070E080E50E9477
:1045E0007156F82E6FEF7FEF83E50E9471568C01B4
:1045F0000196039708F0E0C4F7FCDEC48F2D0E94FB
:10460000E6F6882339F00E9449F088E79AE00E9494
:10461000CEEDD2C40E940B9860E08F2D0E94D3D5BE
:104620000F3FBFEF1B0731F00130110571F000E0C3
:1046300010E00DC08F2D0E947BD531E020E0892B4A
:1046400009F030E0032F122F02C001E010E08F2D9F
:104650000E947BD58017910709F4AEC40E94313CBB
:10466000F6CF80E50E941B56882309F4A5C40E945A
:10467000E0558C01892B09F07FC083E50E941B5611
:10468000882389F00E94E0558F3FEFEF9E0729F4C1
:1046900089E392E10E94A6388FC4BC0189E392E1CC
:1046A0000E94763989C40E944DF060E070E086E98E
:1046B0009AE00E9429F080913B1228E532E06901DE
:1046C000C81AD10887FDD394CC0CDD1CCC0CDD1CA2
:1046D0000D2C000CEE08FF0880913A1228E830E01B
:1046E0004901881A910887FD9394880C991C880CBD
:1046F000991C092C000CAA08BB08809139128F3F25
:10470000C1F090E0FC01EE0FFF1F8E0F9F1FFC0118
:10471000E453FE4E2181328173E0220F331F7A95DC
:10472000E1F7E4E036952795EA95E1F72E5F3F4FF4
:1047300002C020E030E02F5F3F4FC901330FAA0BCA
:10474000BB0B9C01AD01281939094A095B09A4EB8F
:10475000B0E00F941907A7019601281939094A09F1
:104760005B090F94FA06B90187E897E20E9429F0E5
:104770008AE00E94EE3A20C40E9449F0B80187E91D
:104780009AE00E9429F087E89AE00E94CEED14C4D6
:1047900060E085E40E9405B9811173C080E50E9444
:1047A0001B56882351F00E94E45560931E057093B8
:1047B0001F05809320059093210589E40E941B56D4
:1047C000882381F00E94E4552CEA35EC47E25EE351
:1047D0000F9437036093220570932305809324057B
:1047E0009093250584E40E941B56882381F00E9443
:1047F000E4552CEA35EC47E25EE30F94A908609398
:1048000026057093270580932805909329050E941B
:104810004DF040911E0550911F056091200570914B
:10482000210586EA9AE00E9418F02CEA35EC47E26E
:104830005EE360912205709123058091240590919B
:1048400025050F94A908AB01BC0182EA9AE00E94F9
:1048500018F02CEA35EC47E25EE360912605709192
:10486000270580912805909129050F943703AB0106
:10487000BC018EE99AE00E9418F08AE00E94EE3AAC
:104880009BC30E9449F086E691E20E94CEED94C35C
:1048900080E50E941B56882351F00E94E4556093E6
:1048A000060E7093070E8093080E9093090E89E40C
:1048B0000E941B56882381F00E94E4552CEA35ECB7
:1048C00047E25EE30F94370360930A0E70930B0E7A
:1048D00080930C0E90930D0E84E40E941B56882347
:1048E00081F00E94E4552CEA35EC47E25EE30F9438
:1048F000A90860930E0E70930F0E8093100E909384
:10490000110E0E944DF04091060E5091070E6091DD
:10491000080E7091090E86EA9AE00E9418F02CEABF
:1049200035EC47E25EE360910A0E70910B0E8091C8
:104930000C0E90910D0E0F94A908AB01BC0182EAF8
:104940009AE00E9418F02CEA35EC47E25EE36091B1
:104950000E0E70910F0E8091100E9091110E0F940B
:104960003703AB01BC018EE99AE00E9418F08AE09F
:104970000E94EE3A21C383E50E941B56182F88231C
:1049800071F00E94E4550F941B0970931602609316
:10499000150221E0672B09F020E02093120580E545
:1049A0000E941B56882359F020911502309116025F
:1049B000232B11F00E94256580931205FDC2111171
:1049C000FBC20E944DF083EC9AE00E94CEED8091F4
:1049D0001205882319F085E190E202C08AEA9AE084
:1049E0000E94CEED609115027091160282EB9AE062
:1049F0000E9429F08EEA9AE00E94CEEDDDC20E946C
:104A00000CA3DAC20E940B98D7C281E00E9496954F
:104A10000E943790D1C280E00E9496950E94379004
:104A2000CBC20E948FBDC8C26FEF7FEF89E40E94A6
:104A30007156B82E6FEF7FEF8AE40E947156182FDF
:104A400083E40E941B56E82E8EE40E941B56C82E5B
:104A50008AE50E941B56F82E811105C081E50E944F
:104A60001B56D82E01C0D12CEE2081F020E030E082
:104A700040E064EE70E181E00E94D6D729833A835A
:104A80004B835C836D837E83032F02C0012F2B2D0C
:104A90008E2D90E0B7FC05C01095111F1127111F36
:104AA00001C010E0810F911D019731F4F1100BC08E
:104AB000D11009C0C11007C00E9449F086ED9AE0EC
:104AC0000E94CEED79C22A3010F40A3038F00E94EC
:104AD00049F082ED97E00E94CEED6EC2E22E220FE9
:104AE000FF08002E000C110BC1101DC00E94E455E0
:104AF000DD2099F02AE02E9DF0012F9DF00D11246C
:104B0000E00FF11FEE0FFF1FEE0FFF1FEB5EF34FE5
:104B1000208131814281538103C020E030E0A9012E
:104B20000F94AF0704C060E070E080EC9FE72AE0DC
:104B30002E9DF0012F9DF00D1124E00FF11FEE0FBF
:104B4000FF1FEE0FFF1FEB5EF34F608371838283C5
:104B5000938332C20E9493F681112EC20FE419E1B1
:104B600024EE30E13B8F2A8FCE0101961C0132E802
:104B7000C32E39E1D32E7C01F801659175918591A1
:104B80009491AA8DBB8D8D909D90AD90BD90BB8F63
:104B9000AA8FA50194010F94AE072B013C01F701E8
:104BA000608371838283938320E030E040EA51EC9C
:104BB0000F940F0A87FD0AC020E030E040EA51E47C
:104BC000C301B2010F94D10218162CF4F60184919E
:104BD00018160CF443C5D7018D909D90AD90BD90F3
:104BE0007D0120E030E040EA51ECC501B4010F94B2
:104BF0000F0A87FD3EC520E030E040EA51E4C501E0
:104C0000B4010F94D10218160CF03AC532C50E94B7
:104C1000F4C9D2C10E94D98CCFC10E94E783CCC114
:104C200061E083E50E94356591E089270E94EC9060
:104C3000C3C181E08093C40D0E9419861092C40DF7
:104C4000882309F4B9C10E944DF084E19BE00E94E1
:104C5000CEEDB2C18091340E87FD36C58091350E00
:104C6000837009F031C54091E70D5091E80D6091D6
:104C7000E90D7091EA0D87E59BE00E9418F04091E4
:104C8000EB0D5091EC0D6091ED0D7091EE0D89E8FA
:104C90009FE10E9418F04091EF0D5091F00D60914E
:104CA000F10D7091F20D86E89FE10E9418F08AE004
:104CB0000E94EE3A81C18BE40E946456882329F158
:104CC0000E94E4556B017C0120E030E0A9010F94C3
:104CD0000F0A87FD15C020E030E040E251E4C70133
:104CE000B6010F94D10218165CF00E940B98C09286
:104CF0002A05D0922B05E0922C05F0922D055CC17F
:104D000086E69BE00E94CEED57C10E944DF0409197
:104D10002A0550912B0560912C0570912D0585E891
:104D20009BE00E9418F08AE00E94EE3A45C10E9482
:104D3000DEF142C160E089E40E9405B9D82E91E716
:104D4000A92E92E0B92E11E000E060E070E0D501FC
:104D50008D915D010E9471567C010097A1F1023096
:104D6000C1F0033001F1013051F0D1102BC090930C
:104D7000CA118093C911BC0186E991E121C0D1100B
:104D800021C09093941180939311BC0180E691E12E
:104D900017C0D11017C090935E1180935D11BC01B4
:104DA0008AE291E10DC00E94A9F187FD05C1811140
:104DB00009C0F0922811E0922711B70184EF90E129
:104DC0000E9443AF10E00F5F043009F0BECF112303
:104DD00009F4F2C00E94DBF16091C9117091CA110F
:104DE00080E99BE00E940EF08AE00E94EE3A0E9469
:104DF000D8F1609193117091941180E99BE00E9429
:104E00000EF08AE00E94EE3A0E94D5F160915D11A9
:104E100070915E1180E99BE00E940EF08AE00E9492
:104E2000EE3A0E94D2F1609127117091281180E929
:104E30009BE00E940EF08AE00E94EE3ABDC083E53E
:104E40000E941B56882309F446C00E94A9F1B82E7F
:104E50000E942565082F60E089E40E9405B9E82ECC
:104E600081E7C82E82E0D82E10E0F026F60181916D
:104E70006F010E941B56882351F11230A9F01330A4
:104E8000D9F0113041F0E11022C00093CB116F2D09
:104E900086E991E11AC0E1101AC000939511602FC4
:104EA000612780E691E111C0E11011C000935F110C
:104EB0006F2D8AE291E109C0B7FC7EC0B11007C036
:104EC000009329116F2D84EF90E10E94E59E1F5FF2
:104ED000143061F671C00E94DBF18EEA9BE00E9403
:104EE000CEED86E991E10E94059F811103C08DE717
:104EF00097E002C082EA9BE00E94CEED8AE00E9429
:104F0000EE3A0E94D8F18EEA9BE00E94CEED80E658
:104F100091E10E94059F811103C08DE797E002C0D7
:104F200082EA9BE00E94CEED8AE00E94EE3A0E9467
:104F3000D5F18EEA9BE00E94CEED8AE291E10E94DB
:104F4000059F811103C08DE797E002C082EA9BE0D4
:104F50000E94CEED8AE00E94EE3A0E94D2F18EEAE3
:104F60009BE00E94CEED84EF90E10E94059F8111AD
:104F700003C08DE797E002C082EA9BE00E94CEED7D
:104F80008AE00E94EE3A18C081E080935B0260E004
:104F900083E50E94356581110FC00E947EA80CC078
:104FA0000E94CFF509C08091380E882329F00E9415
:104FB000B39F02C00E94CFF5FFA1F1110FC0E09195
:104FC000D50FF0E0E958FD4E8081882339F08FE855
:104FD00091E20E94CEED8AE00E94EE3A2EA120934B
:104FE0007F0342C420E030E0A901C701B6010F945D
:104FF000D102881F8827881F181709F4A2C080E0F3
:1050000090E0A0E8BFEB8AA39BA3ACA3BDA32A8D2D
:105010003B8D4C8D5D8DC501B4010F94AE0720E032
:1050200030E040E05FE30F9437036A8F7B8F8C8F13
:105030009D8F2E8D3F8D48A159A1C301B2010F94C0
:10504000AE0720E030E040E05FE30F9437032B0130
:105050003C012A8D3B8D4C8D5D8DCA01B9010F94A9
:1050600037034B015C01A3019201C301B2010F940C
:1050700037039B01AC01C501B4010F94AF070F9436
:10508000AD0A4B015C019B01AC01C701B6010F9455
:10509000AE076E8F7F8F88A399A3A5019401C701E6
:1050A000B6010F94AF079B01AC016E8D7F8D88A177
:1050B00099A10F9437036B017C0120E030E0A90136
:1050C0000F940F0A87FD07C0C701B6010F94AD0A00
:1050D0006B017C0103C0C12CD12C7601C301B2014C
:1050E0009058A50194010F94A9082AA13BA14CA1B5
:1050F0005DA10F943703A70196010F9437032A8D02
:105100003B8D4C8D5D8D0F94AF0769837A838B83C4
:105110009C83A50194016A8D7B8D8C8D9D8D0F9450
:10512000A9082AA13BA14CA15DA10F943703A701B7
:1051300096010F943703A30192010F94AF070C94CB
:10514000B71880E090E0A0E8BFE35DCF412FBE013B
:105150006F5F7F4F8DE690E10E9437AA0E9412D7C1
:105160006093F70D7093F80D8093F90D9093FA0DFD
:1051700023CF0E940B98E090E60D80E00E94E1EBC7
:105180000E94338D81E08093450E0E94289088E52F
:105190000E941B56182F89E50E941B56F82E8AE59F
:1051A0000E941B561F11F9C0181711F0F12EF5C0FF
:1051B000FF24F39411E001E080E1E4EEF0E1ADE6DC
:1051C000B0E101900D928A95E1F782E50E94645664
:1051D000882369F00E94E4554B015C0120E030E037
:1051E000A9010F94D102882309F43EC006C0812C86
:1051F000912C90EAA92E90E4B92E111102C0FF2043
:10520000E9F18091470E82FD09C06091EC10709128
:10521000ED108091EE109091EF1003C060E070E00F
:10522000CB01A50194010F94AF07609375107093A3
:10523000761080937710909378102091EC10309135
:10524000ED104091EE105091EF100F940F0A1816C8
:105250005CF419821A821B821C82BE016F5F7F4F31
:1052600085E790E10E94338E112319F080E00E94BF
:105270008272FF2019F081E00E948272002309F4FB
:105280007EC080E00E941BE48091470E83708330D3
:1052900029F00E944DF081EB97E06FC00E944C8F87
:1052A0008090EC109090ED10A090EE10B090EF1068
:1052B0002091E70D3091E80D4091E90D5091EA0DF4
:1052C00060E070E086E193E40F94AE0760936D10A8
:1052D00070936E1080936F10909370102091EB0D6F
:1052E0003091EC0D4091ED0D5091EE0D60E070E0CD
:1052F00088EC92E40F94AE07609371107093721073
:1053000080937310909374102091EF0D3091F00DF5
:105310004091F10D5091F20DC501B4010F94AE070B
:105320006093751070937610809377109093781037
:105330008DE690E10E94B2588823D9F01E8A1F8A18
:10534000188E198E88E0EDE6F0E1DE0111960190ED
:105350000D928A95E1F7AE014A5E5F4FBE016B5F29
:105360007F4FCE0101960E94118E82E00E948272D0
:1053700006C00E944DF08FE997E00E94CEED0E949A
:105380004C8F8091440E8093450E8E2D0E94E1EB50
:105390000E941A8D0E9437900FCE082F0DCF88E5FE
:1053A0000E941B5681115F9889E50E941B5681114E
:1053B0008A988AE50E941B56882329F0809108016B
:1053C00081708093060185E40E941B56882309F4AE
:1053D000F3CD1298F1CD5F988A9880910801817081
:1053E000809306011298E8CD61E0802F0E94D3D50A
:1053F0006F2D802F0E94A4D56F2D70E0802F0E940A
:105400000FD6DACD0E94E4550F941B09CB010E9400
:10541000C89F61E081E00E94F2FA11E00C94421E04
:105420000E94E4550F941B096E36710574F4709355
:10543000040E6093030E0E94DFB260E081E00E94E0
:10544000F2FA812F0E940EA0B7CD6EE670E0EFCF8A
:105450000E940B9888E50E941B56882331F05F9AC2
:105460008091470E8E7F8093470E89E50E941B56E0
:10547000882331F08A9A8091470E8D7F8093470E62
:105480008AE50E941B56882359F080910801809577
:105490008170809306018091470E8B7F8093470E29
:1054A00085E40E941B5688CD0E94009A85CD83E535
:1054B0000E946456882391F00E94E4556093930BF8
:1054C0007093940B8093950B9093960B60939B0B2A
:1054D00070939C0B80939D0B90939E0B80E50E9494
:1054E0006456882351F00E94E4556093930B7093A7
:1054F000940B8093950B9093960B82E50E946456D3
:10550000882351F00E94E4556093970B7093980B99
:105510008093990B90939A0B84E50E94645688239C
:1055200009F44ACD0E94E45560939B0B70939C0B49
:1055300080939D0B90939E0B3FCD82E40E941B565F
:105540008823C1F080917B0390917C03009739F010
:105550004AE050E060E070E00F942E0103C060E08C
:1055600070E0CB0160936F0B7093700B8093710BA5
:105570009093720B83E50E941B56882351F00E9482
:10558000E45560939F0B7093A00B8093A10B9093B5
:10559000A20B84E50E941B56882351F00E94E4551B
:1055A0006093A30B7093A40B8093A50B9093A60B11
:1055B0008AE40E941B56882309F4FECC0E94E4551D
:1055C0006B017C012AE037ED43E25CE30F940F0AA4
:1055D00087FD3DC02AE939E949E95EE3C701B60123
:1055E0000F94D10218169CF1C092E404D092E50405
:1055F000E092E604F092E70460916B0B70916C0B03
:1056000080916D0B90916E0B0F94D6024B015C0153
:1056100023EF34E045E35FE3C701B6010F9437039E
:105620009B01AC01C501B4010F94370329E732E8AF
:105630004AE550E40F9437030F94AD0A6093FC04DD
:105640007093FD048093FE049093FF04B5CC0E94F8
:1056500049F081E39AE00E94CEEDAECCB7FAB09467
:10566000B7F8B094D7018D929D92AD92BC921397EA
:10567000B2CA0E9449F086EF9AE00E94CEED9CCC1F
:105680000C5F1F4FBFEFCB1ADB0AE9E10B351E079A
:1056900009F072CA29E4E22E2EE0F22E10E0F101A8
:1056A00081919191A191B1911F01F7018193919302
:1056B000A193B1937F01812F0E9462721F5F13300B
:1056C00071F70E94379078CCF091E70DFA8F8090B7
:1056D000E80D7090E90D6090EA0D5090EB0D409050
:1056E000EC0D3090ED0D2090EE0DC090EF0DD090B0
:1056F000F00DE090F10DF090F20D88E50E946456F7
:10570000882361F10E94E4555B018C0120E030E0C8
:1057100046E953EC0F940F0A87FD0AC020E030E001
:1057200046E953E4B501C8010F94D102181694F468
:105730006CE271E084E49BE00E9429F06CE271E08D
:1057400082EC95E10E9429F08EE493E20E94CEED76
:1057500010E005C0AA8E8B2C702E612E11E089E519
:105760000E946456882381F10E94E455962EA72E4C
:10577000B82E092F20E030E048E453EC0F940F0AD4
:1057800087FD0CC020E030E048E453E4692D7A2D19
:105790008B2D902F0F94D102181694F468EC70E0C2
:1057A00081E39BE00E9429F068EC70E082EC95E1D7
:1057B0000E9429F08EE493E20E94CEED10E004C036
:1057C000592C4A2C3B2C202E8AE50E9464568823B3
:1057D00039F10E94E4556B017C0120E030E040EAA1
:1057E00051EC0F940F0A87FD0AC020E030E040EA38
:1057F00051E4C701B6010F94D10218168CF46CEE77
:105800007FEF8FE19BE00E9429F064E170E082EC81
:1058100095E10E9429F08EE493E20E94CEEDCCCB7C
:10582000112309F4C9CB8A8D982DA72DB62D80930D
:10583000E70D9093E80DA093E90DB093EA0D852D47
:10584000942DA32DB22D8093EB0D9093EC0DA0938E
:10585000ED0DB093EE0DC092EF0DD092F00DE092F1
:10586000F10DF092F20DA8CBA7960FB6F894DEBF1B
:105870000FBECDBFDF91CF911F910F91FF90EF90A1
:10588000DF90CF90BF90AF909F908F907F906F9060
:105890005F904F903F902F9008952F923F924F929C
:1058A0005F926F927F928F929F92AF92BF92CF92B0
:1058B000DF92EF92FF920F931F93CF93DF93CDB7B9
:1058C000DEB764970FB6F894DEBF0FBECDBF8FEF83
:1058D0009FEF90938900809388000AE00983212C30
:1058E000312C78948091CF039091D003A091D10373
:1058F000B091D203892B8A2B8B2B71F080910D02F2
:1059000090910E02A0910F02B0911002892B8A2B68
:105910008B2B09F07FC2DFC1809126108823D1F044
:10592000109226108091241090912510892B31F32C
:1059300010928803109225101092241090913F121B
:10594000809140129817D1F2809140128F5F8F7032
:10595000809340128091241090912510892B71F230
:105960004091CB035091CC036091CD037091CE0355
:105970008091C7039091C803A091C903B091CA0355
:105980000091BE0310E020E030E0841B950BA60BD5
:10599000B70B081719072A073B0710F4D901C801EC
:1059A0008A8B840F951FA61FB71F8093CB039093FC
:1059B000CC03A093CD03B093CE031C8A1B8AF1E0E5
:1059C00000919303109194032091950330919603D5
:1059D0008091A3039091A403A091A503B091A60385
:1059E000080F191F2A1F3B1F0093A3031093A40342
:1059F0002093A5033093A60337FD31C08091800327
:105A0000082E000C990BAA0BBB0B40913310509140
:105A100034106091351070913610840F951FA61FB9
:105A2000B71F8093331090933410A0933510B09328
:105A3000361080918F0390919003A0919103B091C3
:105A40009203B901A801481B590B6A0B7B0B4093C9
:105A5000A3035093A4036093A5037093A6034091FE
:105A60009703509198036091990370919A038091E4
:105A7000A7039091A803A091A903B091AA03480F8E
:105A8000591F6A1F7B1F4093A7035093A80360937D
:105A9000A9037093AA0377FD31C080918103082E7A
:105AA000000C990BAA0BBB0BC0903710D09038108C
:105AB000E0903910F0903A108C0D9D1DAE1DBF1D69
:105AC0008093371090933810A0933910B0933A1008
:105AD00080918F0390919003A0919103B0919203D4
